{
  "contractName": "ERC721Full",
  "abi": [
    {
      "constant": true,
      "inputs": [
        {
          "name": "interfaceId",
          "type": "bytes4"
        }
      ],
      "name": "supportsInterface",
      "outputs": [
        {
          "name": "",
          "type": "bool"
        }
      ],
      "payable": false,
      "stateMutability": "view",
      "type": "function"
    },
    {
      "constant": true,
      "inputs": [],
      "name": "name",
      "outputs": [
        {
          "name": "",
          "type": "string"
        }
      ],
      "payable": false,
      "stateMutability": "view",
      "type": "function"
    },
    {
      "constant": true,
      "inputs": [
        {
          "name": "tokenId",
          "type": "uint256"
        }
      ],
      "name": "getApproved",
      "outputs": [
        {
          "name": "",
          "type": "address"
        }
      ],
      "payable": false,
      "stateMutability": "view",
      "type": "function"
    },
    {
      "constant": false,
      "inputs": [
        {
          "name": "to",
          "type": "address"
        },
        {
          "name": "tokenId",
          "type": "uint256"
        }
      ],
      "name": "approve",
      "outputs": [],
      "payable": false,
      "stateMutability": "nonpayable",
      "type": "function"
    },
    {
      "constant": true,
      "inputs": [],
      "name": "totalSupply",
      "outputs": [
        {
          "name": "",
          "type": "uint256"
        }
      ],
      "payable": false,
      "stateMutability": "view",
      "type": "function"
    },
    {
      "constant": false,
      "inputs": [
        {
          "name": "from",
          "type": "address"
        },
        {
          "name": "to",
          "type": "address"
        },
        {
          "name": "tokenId",
          "type": "uint256"
        }
      ],
      "name": "transferFrom",
      "outputs": [],
      "payable": false,
      "stateMutability": "nonpayable",
      "type": "function"
    },
    {
      "constant": true,
      "inputs": [
        {
          "name": "owner",
          "type": "address"
        },
        {
          "name": "index",
          "type": "uint256"
        }
      ],
      "name": "tokenOfOwnerByIndex",
      "outputs": [
        {
          "name": "",
          "type": "uint256"
        }
      ],
      "payable": false,
      "stateMutability": "view",
      "type": "function"
    },
    {
      "constant": false,
      "inputs": [
        {
          "name": "from",
          "type": "address"
        },
        {
          "name": "to",
          "type": "address"
        },
        {
          "name": "tokenId",
          "type": "uint256"
        }
      ],
      "name": "safeTransferFrom",
      "outputs": [],
      "payable": false,
      "stateMutability": "nonpayable",
      "type": "function"
    },
    {
      "constant": true,
      "inputs": [
        {
          "name": "index",
          "type": "uint256"
        }
      ],
      "name": "tokenByIndex",
      "outputs": [
        {
          "name": "",
          "type": "uint256"
        }
      ],
      "payable": false,
      "stateMutability": "view",
      "type": "function"
    },
    {
      "constant": true,
      "inputs": [
        {
          "name": "tokenId",
          "type": "uint256"
        }
      ],
      "name": "ownerOf",
      "outputs": [
        {
          "name": "",
          "type": "address"
        }
      ],
      "payable": false,
      "stateMutability": "view",
      "type": "function"
    },
    {
      "constant": true,
      "inputs": [],
      "name": "baseURI",
      "outputs": [
        {
          "name": "",
          "type": "string"
        }
      ],
      "payable": false,
      "stateMutability": "view",
      "type": "function"
    },
    {
      "constant": true,
      "inputs": [
        {
          "name": "owner",
          "type": "address"
        }
      ],
      "name": "balanceOf",
      "outputs": [
        {
          "name": "",
          "type": "uint256"
        }
      ],
      "payable": false,
      "stateMutability": "view",
      "type": "function"
    },
    {
      "constant": true,
      "inputs": [],
      "name": "symbol",
      "outputs": [
        {
          "name": "",
          "type": "string"
        }
      ],
      "payable": false,
      "stateMutability": "view",
      "type": "function"
    },
    {
      "constant": false,
      "inputs": [
        {
          "name": "to",
          "type": "address"
        },
        {
          "name": "approved",
          "type": "bool"
        }
      ],
      "name": "setApprovalForAll",
      "outputs": [],
      "payable": false,
      "stateMutability": "nonpayable",
      "type": "function"
    },
    {
      "constant": false,
      "inputs": [
        {
          "name": "from",
          "type": "address"
        },
        {
          "name": "to",
          "type": "address"
        },
        {
          "name": "tokenId",
          "type": "uint256"
        },
        {
          "name": "_data",
          "type": "bytes"
        }
      ],
      "name": "safeTransferFrom",
      "outputs": [],
      "payable": false,
      "stateMutability": "nonpayable",
      "type": "function"
    },
    {
      "constant": true,
      "inputs": [
        {
          "name": "tokenId",
          "type": "uint256"
        }
      ],
      "name": "tokenURI",
      "outputs": [
        {
          "name": "",
          "type": "string"
        }
      ],
      "payable": false,
      "stateMutability": "view",
      "type": "function"
    },
    {
      "constant": true,
      "inputs": [
        {
          "name": "owner",
          "type": "address"
        },
        {
          "name": "operator",
          "type": "address"
        }
      ],
      "name": "isApprovedForAll",
      "outputs": [
        {
          "name": "",
          "type": "bool"
        }
      ],
      "payable": false,
      "stateMutability": "view",
      "type": "function"
    },
    {
      "inputs": [
        {
          "name": "name",
          "type": "string"
        },
        {
          "name": "symbol",
          "type": "string"
        }
      ],
      "payable": false,
      "stateMutability": "nonpayable",
      "type": "constructor"
    },
    {
      "anonymous": false,
      "inputs": [
        {
          "indexed": true,
          "name": "from",
          "type": "address"
        },
        {
          "indexed": true,
          "name": "to",
          "type": "address"
        },
        {
          "indexed": true,
          "name": "tokenId",
          "type": "uint256"
        }
      ],
      "name": "Transfer",
      "type": "event"
    },
    {
      "anonymous": false,
      "inputs": [
        {
          "indexed": true,
          "name": "owner",
          "type": "address"
        },
        {
          "indexed": true,
          "name": "approved",
          "type": "address"
        },
        {
          "indexed": true,
          "name": "tokenId",
          "type": "uint256"
        }
      ],
      "name": "Approval",
      "type": "event"
    },
    {
      "anonymous": false,
      "inputs": [
        {
          "indexed": true,
          "name": "owner",
          "type": "address"
        },
        {
          "indexed": true,
          "name": "operator",
          "type": "address"
        },
        {
          "indexed": false,
          "name": "approved",
          "type": "bool"
        }
      ],
      "name": "ApprovalForAll",
      "type": "event"
    }
  ],
  "bytecode": "0x60806040523480156200001157600080fd5b5060405162001d0b38038062001d0b833981018060405260408110156200003757600080fd5b8101908080516401000000008111156200005057600080fd5b820160208101848111156200006457600080fd5b81516401000000008111828201871017156200007f57600080fd5b505092919060200180516401000000008111156200009c57600080fd5b82016020810184811115620000b057600080fd5b8151640100000000811182820187101715620000cb57600080fd5b509093508492508391506200010b90507f01ffc9a700000000000000000000000000000000000000000000000000000000640100000000620001dd810204565b6200013f7f80ac58cd00000000000000000000000000000000000000000000000000000000640100000000620001dd810204565b620001737f780e9d6300000000000000000000000000000000000000000000000000000000640100000000620001dd810204565b815162000188906009906020850190620002ac565b5080516200019e90600a906020840190620002ac565b50620001d37f5b5e139f00000000000000000000000000000000000000000000000000000000640100000000620001dd810204565b5050505062000351565b7fffffffff0000000000000000000000000000000000000000000000000000000080821614156200026f57604080517f08c379a000000000000000000000000000000000000000000000000000000000815260206004820152601c60248201527f4552433136353a20696e76616c696420696e7465726661636520696400000000604482015290519081900360640190fd5b7fffffffff00000000000000000000000000000000000000000000000000000000166000908152602081905260409020805460ff19166001179055565b828054600181600116156101000203166002900490600052602060002090601f016020900481019282601f10620002ef57805160ff19168380011785556200031f565b828001600101855582156200031f579182015b828111156200031f57825182559160200191906001019062000302565b506200032d92915062000331565b5090565b6200034e91905b808211156200032d576000815560010162000338565b90565b6119aa80620003616000396000f3fe6080604052600436106100f05763ffffffff7c010000000000000000000000000000000000000000000000000000000060003504166301ffc9a781146100f557806306fdde031461013d578063081812fc146101c7578063095ea7b31461020d57806318160ddd1461024857806323b872dd1461026f5780632f745c59146102b257806342842e0e146102eb5780634f6ccce71461032e5780636352211e146103585780636c0360eb1461038257806370a082311461039757806395d89b41146103ca578063a22cb465146103df578063b88d4fde1461041a578063c87b56dd146104ed578063e985e9c514610517575b600080fd5b34801561010157600080fd5b506101296004803603602081101561011857600080fd5b5035600160e060020a031916610552565b604080519115158252519081900360200190f35b34801561014957600080fd5b50610152610575565b6040805160208082528351818301528351919283929083019185019080838360005b8381101561018c578181015183820152602001610174565b50505050905090810190601f1680156101b95780820380516001836020036101000a031916815260200191505b509250505060405180910390f35b3480156101d357600080fd5b506101f1600480360360208110156101ea57600080fd5b503561060c565b60408051600160a060020a039092168252519081900360200190f35b34801561021957600080fd5b506102466004803603604081101561023057600080fd5b50600160a060020a0381351690602001356106af565b005b34801561025457600080fd5b5061025d61085e565b60408051918252519081900360200190f35b34801561027b57600080fd5b506102466004803603606081101561029257600080fd5b50600160a060020a03813581169160208101359091169060400135610864565b3480156102be57600080fd5b5061025d600480360360408110156102d557600080fd5b50600160a060020a038135169060200135610901565b3480156102f757600080fd5b506102466004803603606081101561030e57600080fd5b50600160a060020a038135811691602081013590911690604001356109bf565b34801561033a57600080fd5b5061025d6004803603602081101561035157600080fd5b50356109db565b34801561036457600080fd5b506101f16004803603602081101561037b57600080fd5b5035610a81565b34801561038e57600080fd5b50610152610b1c565b3480156103a357600080fd5b5061025d600480360360208110156103ba57600080fd5b5035600160a060020a0316610b7d565b3480156103d657600080fd5b50610152610c26565b3480156103eb57600080fd5b506102466004803603604081101561040257600080fd5b50600160a060020a0381351690602001351515610c87565b34801561042657600080fd5b506102466004803603608081101561043d57600080fd5b600160a060020a0382358116926020810135909116916040820135919081019060808101606082013564010000000081111561047857600080fd5b82018360208201111561048a57600080fd5b803590602001918460018302840111640100000000831117156104ac57600080fd5b91908080601f016020809104026020016040519081016040528093929190818152602001838380828437600092019190915250929550610d89945050505050565b3480156104f957600080fd5b506101526004803603602081101561051057600080fd5b5035610e28565b34801561052357600080fd5b506101296004803603604081101561053a57600080fd5b50600160a060020a0381358116916020013516611035565b600160e060020a0319811660009081526020819052604090205460ff165b919050565b60098054604080516020601f60026000196101006001881615020190951694909404938401819004810282018101909252828152606093909290918301828280156106015780601f106105d657610100808354040283529160200191610601565b820191906000526020600020905b8154815290600101906020018083116105e457829003601f168201915b505050505090505b90565b600061061782611063565b1515610693576040805160e560020a62461bcd02815260206004820152602c60248201527f4552433732313a20617070726f76656420717565727920666f72206e6f6e657860448201527f697374656e7420746f6b656e0000000000000000000000000000000000000000606482015290519081900360840190fd5b50600090815260026020526040902054600160a060020a031690565b60006106ba82610a81565b9050600160a060020a038381169082161415610746576040805160e560020a62461bcd02815260206004820152602160248201527f4552433732313a20617070726f76616c20746f2063757272656e74206f776e6560448201527f7200000000000000000000000000000000000000000000000000000000000000606482015290519081900360840190fd5b80600160a060020a0316610758611080565b600160a060020a03161480610779575061077981610774611080565b611035565b15156107f5576040805160e560020a62461bcd02815260206004820152603860248201527f4552433732313a20617070726f76652063616c6c6572206973206e6f74206f7760448201527f6e6572206e6f7220617070726f76656420666f7220616c6c0000000000000000606482015290519081900360840190fd5b600082815260026020526040808220805473ffffffffffffffffffffffffffffffffffffffff1916600160a060020a0387811691821790925591518593918516917f8c5be1e5ebec7d5bd14f71427d1e84f3dd0314c0f7b2291e5b200ac8c7c3b92591a4505050565b60075490565b61087561086f611080565b82611084565b15156108f1576040805160e560020a62461bcd02815260206004820152603160248201527f4552433732313a207472616e736665722063616c6c6572206973206e6f74206f60448201527f776e6572206e6f7220617070726f766564000000000000000000000000000000606482015290519081900360840190fd5b6108fc838383611169565b505050565b600061090c83610b7d565b8210610988576040805160e560020a62461bcd02815260206004820152602b60248201527f455243373231456e756d657261626c653a206f776e657220696e646578206f7560448201527f74206f6620626f756e6473000000000000000000000000000000000000000000606482015290519081900360840190fd5b600160a060020a03831660009081526005602052604090208054839081106109ac57fe5b9060005260206000200154905092915050565b6108fc8383836020604051908101604052806000815250610d89565b60006109e561085e565b8210610a61576040805160e560020a62461bcd02815260206004820152602c60248201527f455243373231456e756d657261626c653a20676c6f62616c20696e646578206f60448201527f7574206f6620626f756e64730000000000000000000000000000000000000000606482015290519081900360840190fd5b6007805483908110610a6f57fe5b90600052602060002001549050919050565b600081815260016020526040812054600160a060020a0316801515610b16576040805160e560020a62461bcd02815260206004820152602960248201527f4552433732313a206f776e657220717565727920666f72206e6f6e657869737460448201527f656e7420746f6b656e0000000000000000000000000000000000000000000000606482015290519081900360840190fd5b92915050565b600b8054604080516020601f60026000196101006001881615020190951694909404938401819004810282018101909252828152606093909290918301828280156106015780601f106105d657610100808354040283529160200191610601565b6000600160a060020a0382161515610c05576040805160e560020a62461bcd02815260206004820152602a60248201527f4552433732313a2062616c616e636520717565727920666f7220746865207a6560448201527f726f206164647265737300000000000000000000000000000000000000000000606482015290519081900360840190fd5b600160a060020a0382166000908152600360205260409020610b1690611188565b600a8054604080516020601f60026000196101006001881615020190951694909404938401819004810282018101909252828152606093909290918301828280156106015780601f106105d657610100808354040283529160200191610601565b610c8f611080565b600160a060020a0383811691161415610cf2576040805160e560020a62461bcd02815260206004820152601960248201527f4552433732313a20617070726f766520746f2063616c6c657200000000000000604482015290519081900360640190fd5b8060046000610cff611080565b600160a060020a03908116825260208083019390935260409182016000908120918716808252919093529120805460ff191692151592909217909155610d43611080565b6040805184151581529051600160a060020a0392909216917f17307eab39ab6107e8899845ad3d59bd9653f200f220920489ca2b5937696c319181900360200190a35050565b610d9a610d94611080565b83611084565b1515610e16576040805160e560020a62461bcd02815260206004820152603160248201527f4552433732313a207472616e736665722063616c6c6572206973206e6f74206f60448201527f776e6572206e6f7220617070726f766564000000000000000000000000000000606482015290519081900360840190fd5b610e228484848461118c565b50505050565b6060610e3382611063565b1515610eaf576040805160e560020a62461bcd02815260206004820152602f60248201527f4552433732314d657461646174613a2055524920717565727920666f72206e6f60448201527f6e6578697374656e7420746f6b656e0000000000000000000000000000000000606482015290519081900360840190fd5b6000828152600c602090815260409182902080548351601f6002600019610100600186161502019093169290920491820184900484028101840190945280845260609392830182828015610f445780601f10610f1957610100808354040283529160200191610f44565b820191906000526020600020905b815481529060010190602001808311610f2757829003601f168201915b50505050509050805160001415610f6b575050604080516020810190915260008152610570565b600b816040516020018083805460018160011615610100020316600290048015610fcc5780601f10610faa576101008083540402835291820191610fcc565b820191906000526020600020905b815481529060010190602001808311610fb8575b5050825160208401908083835b60208310610ff85780518252601f199092019160209182019101610fd9565b6001836020036101000a03801982511681845116808217855250505050505090500192505050604051602081830303815290604052915050610570565b600160a060020a03918216600090815260046020908152604080832093909416825291909152205460ff1690565b600090815260016020526040902054600160a060020a0316151590565b3390565b600061108f82611063565b151561110b576040805160e560020a62461bcd02815260206004820152602c60248201527f4552433732313a206f70657261746f7220717565727920666f72206e6f6e657860448201527f697374656e7420746f6b656e0000000000000000000000000000000000000000606482015290519081900360840190fd5b600061111683610a81565b905080600160a060020a031684600160a060020a03161480611151575083600160a060020a03166111468461060c565b600160a060020a0316145b8061116157506111618185611035565b949350505050565b61117483838361121f565b61117e83826113ef565b6108fc82826114e6565b5490565b611197848484611169565b6111a384848484611524565b1515610e22576040805160e560020a62461bcd02815260206004820152603260248201527f4552433732313a207472616e7366657220746f206e6f6e20455243373231526560448201527f63656976657220696d706c656d656e7465720000000000000000000000000000606482015290519081900360840190fd5b82600160a060020a031661123282610a81565b600160a060020a0316146112b6576040805160e560020a62461bcd02815260206004820152602960248201527f4552433732313a207472616e73666572206f6620746f6b656e2074686174206960448201527f73206e6f74206f776e0000000000000000000000000000000000000000000000606482015290519081900360840190fd5b600160a060020a038216151561133b576040805160e560020a62461bcd028152602060048201526024808201527f4552433732313a207472616e7366657220746f20746865207a65726f2061646460448201527f7265737300000000000000000000000000000000000000000000000000000000606482015290519081900360840190fd5b611344816117ec565b600160a060020a038316600090815260036020526040902061136590611836565b600160a060020a03821660009081526003602052604090206113869061184d565b600081815260016020526040808220805473ffffffffffffffffffffffffffffffffffffffff1916600160a060020a0386811691821790925591518493918716917fddf252ad1be2c89b69c2b068fc378daa952ba7f163c4a11628f55a4df523b3ef91a4505050565b600160a060020a03821660009081526005602052604081205461141990600163ffffffff61185616565b6000838152600660205260409020549091508082146114b657600160a060020a038416600090815260056020526040812080548490811061145657fe5b90600052602060002001549050806005600087600160a060020a0316600160a060020a031681526020019081526020016000208381548110151561149657fe5b600091825260208083209091019290925591825260069052604090208190555b600160a060020a03841660009081526005602052604090208054906114df906000198301611941565b5050505050565b600160a060020a0390911660009081526005602081815260408084208054868652600684529185208290559282526001810183559183529091200155565b600061153884600160a060020a031661189f565b151561154657506001611161565b60006060600160a060020a0386167f150b7a020000000000000000000000000000000000000000000000000000000061157d611080565b8988886040516024018085600160a060020a0316600160a060020a0316815260200184600160a060020a0316600160a060020a0316815260200183815260200180602001828103825283818151815260200191508051906020019080838360005b838110156115f65781810151838201526020016115de565b50505050905090810190601f1680156116235780820380516001836020036101000a031916815260200191505b5060408051601f198184030181529181526020820180517bffffffffffffffffffffffffffffffffffffffffffffffffffffffff16600160e060020a0319909a16999099178952518151919890975087965094509250829150849050835b602083106116a05780518252601f199092019160209182019101611681565b6001836020036101000a0380198251168184511680821785525050505050509050019150506000604051808303816000865af19150503d8060008114611702576040519150601f19603f3d011682016040523d82523d6000602084013e611707565b606091505b509150915081151561179c576000815111156117265780518082602001fd5b6040805160e560020a62461bcd02815260206004820152603260248201527f4552433732313a207472616e7366657220746f206e6f6e20455243373231526560448201527f63656976657220696d706c656d656e7465720000000000000000000000000000606482015290519081900360840190fd5b60008180602001905160208110156117b357600080fd5b5051600160e060020a0319167f150b7a020000000000000000000000000000000000000000000000000000000014935061116192505050565b600081815260026020526040902054600160a060020a031615611833576000818152600260205260409020805473ffffffffffffffffffffffffffffffffffffffff191690555b50565b805461184990600163ffffffff61185616565b9055565b80546001019055565b600061189883836040805190810160405280601e81526020017f536166654d6174683a207375627472616374696f6e206f766572666c6f7700008152506118a7565b9392505050565b6000903b1190565b600081848411156119395760405160e560020a62461bcd0281526004018080602001828103825283818151815260200191508051906020019080838360005b838110156118fe5781810151838201526020016118e6565b50505050905090810190601f16801561192b5780820380516001836020036101000a031916815260200191505b509250505060405180910390fd5b505050900390565b8154818355818111156108fc576000838152602090206108fc91810190830161060991905b8082111561197a5760008155600101611966565b509056fea165627a7a72305820ffdfbf8fbaedcb64e6e2f17ee3ad8b061644f67d283e1a2f9ac085df5e1586b10029",
  "source": "pragma solidity ^0.5.0;\n\nimport \"./ERC721.sol\";\nimport \"./ERC721Enumerable.sol\";\nimport \"./ERC721Metadata.sol\";\n\n/**\n * @title Full ERC721 Token\n * @dev This implementation includes all the required and some optional functionality of the ERC721 standard\n * Moreover, it includes approve all functionality using operator terminology.\n *\n * See https://eips.ethereum.org/EIPS/eip-721\n */\ncontract ERC721Full is ERC721, ERC721Enumerable, ERC721Metadata {\n    constructor (string memory name, string memory symbol) public ERC721Metadata(name, symbol) {\n        // solhint-disable-previous-line no-empty-blocks\n    }\n}\n",
  "sourcePath": "openzeppelin-solidity/contracts/token/ERC721/ERC721Full.sol",
  "compiler": {
    "name": "solc",
    "version": "0.5.0+commit.1d4f565a.Emscripten.clang"
  },
  "schemaVersion": "3.3.4",
  "updatedAt": "2021-06-22T15:03:43.106Z",
  "devdoc": {
    "details": "This implementation includes all the required and some optional functionality of the ERC721 standard Moreover, it includes approve all functionality using operator terminology. * See https://eips.ethereum.org/EIPS/eip-721",
    "methods": {
      "approve(address,uint256)": {
        "details": "Approves another address to transfer the given token ID The zero address indicates there is no approved address. There can only be one approved address per token at a given time. Can only be called by the token owner or an approved operator.",
        "params": {
          "to": "address to be approved for the given token ID",
          "tokenId": "uint256 ID of the token to be approved"
        }
      },
      "balanceOf(address)": {
        "details": "Gets the balance of the specified address.",
        "params": {
          "owner": "address to query the balance of"
        },
        "return": "uint256 representing the amount owned by the passed address"
      },
      "baseURI()": {
        "details": "Returns the base URI set via {_setBaseURI}. This will be automatically added as a preffix in {tokenURI} to each token's URI, when they are non-empty.    * _Available since v2.5.0._"
      },
      "getApproved(uint256)": {
        "details": "Gets the approved address for a token ID, or zero if no address set Reverts if the token ID does not exist.",
        "params": {
          "tokenId": "uint256 ID of the token to query the approval of"
        },
        "return": "address currently approved for the given token ID"
      },
      "isApprovedForAll(address,address)": {
        "details": "Tells whether an operator is approved by a given owner.",
        "params": {
          "operator": "operator address which you want to query the approval of",
          "owner": "owner address which you want to query the approval of"
        },
        "return": "bool whether the given operator is approved by the given owner"
      },
      "name()": {
        "details": "Gets the token name.",
        "return": "string representing the token name"
      },
      "ownerOf(uint256)": {
        "details": "Gets the owner of the specified token ID.",
        "params": {
          "tokenId": "uint256 ID of the token to query the owner of"
        },
        "return": "address currently marked as the owner of the given token ID"
      },
      "safeTransferFrom(address,address,uint256)": {
        "details": "Safely transfers the ownership of a given token ID to another address If the target address is a contract, it must implement {IERC721Receiver-onERC721Received}, which is called upon a safe transfer, and return the magic value `bytes4(keccak256(\"onERC721Received(address,address,uint256,bytes)\"))`; otherwise, the transfer is reverted. Requires the msg.sender to be the owner, approved, or operator",
        "params": {
          "from": "current owner of the token",
          "to": "address to receive the ownership of the given token ID",
          "tokenId": "uint256 ID of the token to be transferred"
        }
      },
      "safeTransferFrom(address,address,uint256,bytes)": {
        "details": "Safely transfers the ownership of a given token ID to another address If the target address is a contract, it must implement {IERC721Receiver-onERC721Received}, which is called upon a safe transfer, and return the magic value `bytes4(keccak256(\"onERC721Received(address,address,uint256,bytes)\"))`; otherwise, the transfer is reverted. Requires the _msgSender() to be the owner, approved, or operator",
        "params": {
          "_data": "bytes data to send along with a safe transfer check",
          "from": "current owner of the token",
          "to": "address to receive the ownership of the given token ID",
          "tokenId": "uint256 ID of the token to be transferred"
        }
      },
      "setApprovalForAll(address,bool)": {
        "details": "Sets or unsets the approval of a given operator An operator is allowed to transfer all tokens of the sender on their behalf.",
        "params": {
          "approved": "representing the status of the approval to be set",
          "to": "operator address to set the approval"
        }
      },
      "supportsInterface(bytes4)": {
        "details": "See {IERC165-supportsInterface}.     * Time complexity O(1), guaranteed to always use less than 30 000 gas."
      },
      "symbol()": {
        "details": "Gets the token symbol.",
        "return": "string representing the token symbol"
      },
      "tokenByIndex(uint256)": {
        "details": "Gets the token ID at a given index of all the tokens in this contract Reverts if the index is greater or equal to the total number of tokens.",
        "params": {
          "index": "uint256 representing the index to be accessed of the tokens list"
        },
        "return": "uint256 token ID at the given index of the tokens list"
      },
      "tokenOfOwnerByIndex(address,uint256)": {
        "details": "Gets the token ID at a given index of the tokens list of the requested owner.",
        "params": {
          "index": "uint256 representing the index to be accessed of the requested tokens list",
          "owner": "address owning the tokens list to be accessed"
        },
        "return": "uint256 token ID at the given index of the tokens list owned by the requested address"
      },
      "tokenURI(uint256)": {
        "details": "Returns the URI for a given token ID. May return an empty string.     * If the token's URI is non-empty and a base URI was set (via {_setBaseURI}), it will be added to the token ID's URI as a prefix.     * Reverts if the token ID does not exist."
      },
      "totalSupply()": {
        "details": "Gets the total amount of tokens stored by the contract.",
        "return": "uint256 representing the total amount of tokens"
      },
      "transferFrom(address,address,uint256)": {
        "details": "Transfers the ownership of a given token ID to another address. Usage of this method is discouraged, use {safeTransferFrom} whenever possible. Requires the msg.sender to be the owner, approved, or operator.",
        "params": {
          "from": "current owner of the token",
          "to": "address to receive the ownership of the given token ID",
          "tokenId": "uint256 ID of the token to be transferred"
        }
      }
    },
    "title": "Full ERC721 Token"
  },
  "userdoc": {
    "methods": {}
  }
}